{
  "contractName": "BlindAuction",
  "abi": [
    {
      "inputs": [
        {
          "internalType": "uint256",
          "name": "biddingTime",
          "type": "uint256"
        },
        {
          "internalType": "uint256",
          "name": "revealTime",
          "type": "uint256"
        },
        {
          "internalType": "address payable",
          "name": "beneficiaryAddress",
          "type": "address"
        }
      ],
      "stateMutability": "nonpayable",
      "type": "constructor"
    },
    {
      "inputs": [],
      "name": "AuctionEndAlreadyCalled",
      "type": "error"
    },
    {
      "inputs": [
        {
          "internalType": "uint256",
          "name": "time",
          "type": "uint256"
        }
      ],
      "name": "TooEarly",
      "type": "error"
    },
    {
      "inputs": [
        {
          "internalType": "uint256",
          "name": "time",
          "type": "uint256"
        }
      ],
      "name": "TooLate",
      "type": "error"
    },
    {
      "anonymous": false,
      "inputs": [
        {
          "indexed": false,
          "internalType": "address",
          "name": "winner",
          "type": "address"
        },
        {
          "indexed": false,
          "internalType": "uint256",
          "name": "highestBid",
          "type": "uint256"
        }
      ],
      "name": "AuctionEnded",
      "type": "event"
    },
    {
      "inputs": [],
      "name": "beneficiary",
      "outputs": [
        {
          "internalType": "address payable",
          "name": "",
          "type": "address"
        }
      ],
      "stateMutability": "view",
      "type": "function",
      "constant": true
    },
    {
      "inputs": [],
      "name": "biddingEnd",
      "outputs": [
        {
          "internalType": "uint256",
          "name": "",
          "type": "uint256"
        }
      ],
      "stateMutability": "view",
      "type": "function",
      "constant": true
    },
    {
      "inputs": [
        {
          "internalType": "address",
          "name": "",
          "type": "address"
        },
        {
          "internalType": "uint256",
          "name": "",
          "type": "uint256"
        }
      ],
      "name": "bids",
      "outputs": [
        {
          "internalType": "bytes32",
          "name": "blindedBid",
          "type": "bytes32"
        },
        {
          "internalType": "uint256",
          "name": "deposit",
          "type": "uint256"
        }
      ],
      "stateMutability": "view",
      "type": "function",
      "constant": true
    },
    {
      "inputs": [],
      "name": "ended",
      "outputs": [
        {
          "internalType": "bool",
          "name": "",
          "type": "bool"
        }
      ],
      "stateMutability": "view",
      "type": "function",
      "constant": true
    },
    {
      "inputs": [],
      "name": "highestBid",
      "outputs": [
        {
          "internalType": "uint256",
          "name": "",
          "type": "uint256"
        }
      ],
      "stateMutability": "view",
      "type": "function",
      "constant": true
    },
    {
      "inputs": [],
      "name": "highestBidder",
      "outputs": [
        {
          "internalType": "address",
          "name": "",
          "type": "address"
        }
      ],
      "stateMutability": "view",
      "type": "function",
      "constant": true
    },
    {
      "inputs": [],
      "name": "revealEnd",
      "outputs": [
        {
          "internalType": "uint256",
          "name": "",
          "type": "uint256"
        }
      ],
      "stateMutability": "view",
      "type": "function",
      "constant": true
    },
    {
      "inputs": [
        {
          "internalType": "uint256",
          "name": "value",
          "type": "uint256"
        },
        {
          "internalType": "bool",
          "name": "fake",
          "type": "bool"
        },
        {
          "internalType": "bytes32",
          "name": "secret",
          "type": "bytes32"
        }
      ],
      "name": "getBlindedBidFromBytes",
      "outputs": [
        {
          "internalType": "bytes32",
          "name": "",
          "type": "bytes32"
        }
      ],
      "stateMutability": "view",
      "type": "function",
      "constant": true
    },
    {
      "inputs": [
        {
          "internalType": "bytes32",
          "name": "blindedBid",
          "type": "bytes32"
        }
      ],
      "name": "bid",
      "outputs": [],
      "stateMutability": "payable",
      "type": "function",
      "payable": true
    },
    {
      "inputs": [
        {
          "internalType": "uint256[]",
          "name": "values",
          "type": "uint256[]"
        },
        {
          "internalType": "bool[]",
          "name": "fakes",
          "type": "bool[]"
        },
        {
          "internalType": "bytes32[]",
          "name": "secrets",
          "type": "bytes32[]"
        }
      ],
      "name": "reveal",
      "outputs": [],
      "stateMutability": "nonpayable",
      "type": "function"
    },
    {
      "inputs": [],
      "name": "withdraw",
      "outputs": [],
      "stateMutability": "nonpayable",
      "type": "function"
    },
    {
      "inputs": [],
      "name": "auctionEnd",
      "outputs": [],
      "stateMutability": "nonpayable",
      "type": "function"
    }
  ],
  "bytecode": "0x60806040523480156200001157600080fd5b50604051620016dc380380620016dc83398181016040528101906200003791906200014f565b806000806101000a81548173ffffffffffffffffffffffffffffffffffffffff021916908373ffffffffffffffffffffffffffffffffffffffff1602179055508242620000859190620001da565b600181905550816001546200009b9190620001da565b60028190555050505062000237565b600080fd5b6000819050919050565b620000c481620000af565b8114620000d057600080fd5b50565b600081519050620000e481620000b9565b92915050565b600073ffffffffffffffffffffffffffffffffffffffff82169050919050565b60006200011782620000ea565b9050919050565b62000129816200010a565b81146200013557600080fd5b50565b60008151905062000149816200011e565b92915050565b6000806000606084860312156200016b576200016a620000aa565b5b60006200017b86828701620000d3565b93505060206200018e86828701620000d3565b9250506040620001a18682870162000138565b9150509250925092565b7f4e487b7100000000000000000000000000000000000000000000000000000000600052601160045260246000fd5b6000620001e782620000af565b9150620001f483620000af565b9250827fffffffffffffffffffffffffffffffffffffffffffffffffffffffffffffffff038211156200022c576200022b620001ab565b5b828201905092915050565b61149580620002476000396000f3fe6080604052600436106100a75760003560e01c8063900f080a11610064578063900f080a1461019957806391f90157146101c2578063957bb1e0146101ed578063a6e6647714610209578063d57bde7914610234578063fd3b20bd1461025f576100a7565b806301495c1c146100ac57806312fa6feb146100ea5780632a24f46c1461011557806338af3eed1461012c5780633ccfd60b14610157578063423b217f1461016e575b600080fd5b3480156100b857600080fd5b506100d360048036038101906100ce9190610b9c565b61029c565b6040516100e1929190610c04565b60405180910390f35b3480156100f657600080fd5b506100ff6102dd565b60405161010c9190610c48565b60405180910390f35b34801561012157600080fd5b5061012a6102f0565b005b34801561013857600080fd5b50610141610403565b60405161014e9190610c84565b60405180910390f35b34801561016357600080fd5b5061016c610427565b005b34801561017a57600080fd5b50610183610504565b6040516101909190610c9f565b60405180910390f35b3480156101a557600080fd5b506101c060048036038101906101bb9190610dcb565b61050a565b005b3480156101ce57600080fd5b506101d7610882565b6040516101e49190610e8e565b60405180910390f35b61020760048036038101906102029190610ed5565b6108a8565b005b34801561021557600080fd5b5061021e610984565b60405161022b9190610c9f565b60405180910390f35b34801561024057600080fd5b5061024961098a565b6040516102569190610c9f565b60405180910390f35b34801561026b57600080fd5b5061028660048036038101906102819190610f2e565b610990565b6040516102939190610f81565b60405180910390f35b600460205281600052604060002081815481106102b857600080fd5b9060005260206000209060020201600091509150508060000154908060010154905082565b600360009054906101000a900460ff1681565b600254804211610335576040517f08c379a000000000000000000000000000000000000000000000000000000000815260040161032c90610ff9565b60405180910390fd5b600360009054906101000a900460ff161561037c576040517f61cfdcf800000000000000000000000000000000000000000000000000000000815260040160405180910390fd5b6001600360006101000a81548160ff02191690831515021790555060008054906101000a900473ffffffffffffffffffffffffffffffffffffffff1673ffffffffffffffffffffffffffffffffffffffff166108fc6006549081150290604051600060405180830381858888f193505050501580156103ff573d6000803e3d6000fd5b5050565b60008054906101000a900473ffffffffffffffffffffffffffffffffffffffff1681565b6000600760003373ffffffffffffffffffffffffffffffffffffffff1673ffffffffffffffffffffffffffffffffffffffff1681526020019081526020016000205490506000811115610501576000600760003373ffffffffffffffffffffffffffffffffffffffff1673ffffffffffffffffffffffffffffffffffffffff168152602001908152602001600020819055503373ffffffffffffffffffffffffffffffffffffffff166108fc829081150290604051600060405180830381858888f193505050501580156104ff573d6000803e3d6000fd5b505b50565b60015481565b60015480421161054f576040517f08c379a000000000000000000000000000000000000000000000000000000000815260040161054690610ff9565b60405180910390fd5b600254804210610594576040517f08c379a000000000000000000000000000000000000000000000000000000000815260040161058b90611065565b60405180910390fd5b6000600460003373ffffffffffffffffffffffffffffffffffffffff1673ffffffffffffffffffffffffffffffffffffffff168152602001908152602001600020805490509050808989905014610620576040517f08c379a0000000000000000000000000000000000000000000000000000000008152600401610617906110f7565b60405180910390fd5b808787905014610665576040517f08c379a000000000000000000000000000000000000000000000000000000000815260040161065c90611189565b60405180910390fd5b8085859050146106aa576040517f08c379a00000000000000000000000000000000000000000000000000000000081526004016106a19061121b565b60405180910390fd5b600080600090505b8281101561082e576000600460003373ffffffffffffffffffffffffffffffffffffffff1673ffffffffffffffffffffffffffffffffffffffff168152602001908152602001600020828154811061070d5761070c61123b565b5b9060005260206000209060020201905060008060008e8e868181106107355761073461123b565b5b905060200201358d8d8781811061074f5761074e61123b565b5b9050602002016020810190610764919061126a565b8c8c888181106107775761077661123b565b5b9050602002013592509250925082828260405160200161079993929190611321565b604051602081830303815290604052805190602001208460000154146107c2575050505061081b565b8360010154866107d2919061138d565b9550811580156107e6575082846001015410155b1561080a576107f533846109c6565b1561080957828661080691906113e3565b95505b5b6000801b8460000181905550505050505b808061082690611417565b9150506106b2565b503373ffffffffffffffffffffffffffffffffffffffff166108fc829081150290604051600060405180830381858888f19350505050158015610875573d6000803e3d6000fd5b5050505050505050505050565b600560009054906101000a900473ffffffffffffffffffffffffffffffffffffffff1681565b6001548042106108ed576040517f08c379a00000000000000000000000000000000000000000000000000000000081526004016108e490611065565b60405180910390fd5b600460003373ffffffffffffffffffffffffffffffffffffffff1673ffffffffffffffffffffffffffffffffffffffff1681526020019081526020016000206040518060400160405280848152602001348152509080600181540180825580915050600190039060005260206000209060020201600090919091909150600082015181600001556020820151816001015550505050565b60025481565b60065481565b60008383836040516020016109a793929190611321565b6040516020818303038152906040528051906020012090509392505050565b600060065482116109da5760009050610af8565b600073ffffffffffffffffffffffffffffffffffffffff16600560009054906101000a900473ffffffffffffffffffffffffffffffffffffffff1673ffffffffffffffffffffffffffffffffffffffff1614610aab5760065460076000600560009054906101000a900473ffffffffffffffffffffffffffffffffffffffff1673ffffffffffffffffffffffffffffffffffffffff1673ffffffffffffffffffffffffffffffffffffffff1681526020019081526020016000206000828254610aa3919061138d565b925050819055505b8160068190555082600560006101000a81548173ffffffffffffffffffffffffffffffffffffffff021916908373ffffffffffffffffffffffffffffffffffffffff160217905550600190505b92915050565b600080fd5b600080fd5b600073ffffffffffffffffffffffffffffffffffffffff82169050919050565b6000610b3382610b08565b9050919050565b610b4381610b28565b8114610b4e57600080fd5b50565b600081359050610b6081610b3a565b92915050565b6000819050919050565b610b7981610b66565b8114610b8457600080fd5b50565b600081359050610b9681610b70565b92915050565b60008060408385031215610bb357610bb2610afe565b5b6000610bc185828601610b51565b9250506020610bd285828601610b87565b9150509250929050565b6000819050919050565b610bef81610bdc565b82525050565b610bfe81610b66565b82525050565b6000604082019050610c196000830185610be6565b610c266020830184610bf5565b9392505050565b60008115159050919050565b610c4281610c2d565b82525050565b6000602082019050610c5d6000830184610c39565b92915050565b6000610c6e82610b08565b9050919050565b610c7e81610c63565b82525050565b6000602082019050610c996000830184610c75565b92915050565b6000602082019050610cb46000830184610bf5565b92915050565b600080fd5b600080fd5b600080fd5b60008083601f840112610cdf57610cde610cba565b5b8235905067ffffffffffffffff811115610cfc57610cfb610cbf565b5b602083019150836020820283011115610d1857610d17610cc4565b5b9250929050565b60008083601f840112610d3557610d34610cba565b5b8235905067ffffffffffffffff811115610d5257610d51610cbf565b5b602083019150836020820283011115610d6e57610d6d610cc4565b5b9250929050565b60008083601f840112610d8b57610d8a610cba565b5b8235905067ffffffffffffffff811115610da857610da7610cbf565b5b602083019150836020820283011115610dc457610dc3610cc4565b5b9250929050565b60008060008060008060608789031215610de857610de7610afe565b5b600087013567ffffffffffffffff811115610e0657610e05610b03565b5b610e1289828a01610cc9565b9650965050602087013567ffffffffffffffff811115610e3557610e34610b03565b5b610e4189828a01610d1f565b9450945050604087013567ffffffffffffffff811115610e6457610e63610b03565b5b610e7089828a01610d75565b92509250509295509295509295565b610e8881610b28565b82525050565b6000602082019050610ea36000830184610e7f565b92915050565b610eb281610bdc565b8114610ebd57600080fd5b50565b600081359050610ecf81610ea9565b92915050565b600060208284031215610eeb57610eea610afe565b5b6000610ef984828501610ec0565b91505092915050565b610f0b81610c2d565b8114610f1657600080fd5b50565b600081359050610f2881610f02565b92915050565b600080600060608486031215610f4757610f46610afe565b5b6000610f5586828701610b87565b9350506020610f6686828701610f19565b9250506040610f7786828701610ec0565b9150509250925092565b6000602082019050610f966000830184610be6565b92915050565b600082825260208201905092915050565b7f46756e6374696f6e2069732063616c6c656420746f6f206561726c7900000000600082015250565b6000610fe3601c83610f9c565b9150610fee82610fad565b602082019050919050565b6000602082019050818103600083015261101281610fd6565b9050919050565b7f46756e6374696f6e2069732063616c6c656420746f6f206c6174650000000000600082015250565b600061104f601b83610f9c565b915061105a82611019565b602082019050919050565b6000602082019050818103600083015261107e81611042565b9050919050565b7f4c656e676874206f662076616c756573206f66206e6f7420657175616c20746f60008201527f206e756d626572206f6620626964730000000000000000000000000000000000602082015250565b60006110e1602f83610f9c565b91506110ec82611085565b604082019050919050565b60006020820190508181036000830152611110816110d4565b9050919050565b7f4c656e676874206f662066616b6573206f66206e6f7420657175616c20746f2060008201527f6e756d626572206f662062696473000000000000000000000000000000000000602082015250565b6000611173602e83610f9c565b915061117e82611117565b604082019050919050565b600060208201905081810360008301526111a281611166565b9050919050565b7f4c656e676874206f662073656372657473206f66206e6f7420657175616c207460008201527f6f206e756d626572206f66206269647300000000000000000000000000000000602082015250565b6000611205603083610f9c565b9150611210826111a9565b604082019050919050565b60006020820190508181036000830152611234816111f8565b9050919050565b7f4e487b7100000000000000000000000000000000000000000000000000000000600052603260045260246000fd5b6000602082840312156112805761127f610afe565b5b600061128e84828501610f19565b91505092915050565b6000819050919050565b6112b26112ad82610b66565b611297565b82525050565b60008160f81b9050919050565b60006112d0826112b8565b9050919050565b60006112e2826112c5565b9050919050565b6112fa6112f582610c2d565b6112d7565b82525050565b6000819050919050565b61131b61131682610bdc565b611300565b82525050565b600061132d82866112a1565b60208201915061133d82856112e9565b60018201915061134d828461130a565b602082019150819050949350505050565b7f4e487b7100000000000000000000000000000000000000000000000000000000600052601160045260246000fd5b600061139882610b66565b91506113a383610b66565b9250827fffffffffffffffffffffffffffffffffffffffffffffffffffffffffffffffff038211156113d8576113d761135e565b5b828201905092915050565b60006113ee82610b66565b91506113f983610b66565b92508282101561140c5761140b61135e565b5b828203905092915050565b600061142282610b66565b91507fffffffffffffffffffffffffffffffffffffffffffffffffffffffffffffffff82036114545761145361135e565b5b60018201905091905056fea2646970667358221220114ae2023646ddbbd68ec22d7706c834cf3c87e8f289980ad1b7f475b5c9bcdd64736f6c634300080d0033",
  "immutableReferences": {},
  "source": "// SPDX-License-Identifier: GPL-3.0\npragma solidity ^0.8.4;\n\ncontract BlindAuction {\n    struct Bid {\n        bytes32 blindedBid;\n        uint256 deposit;\n    }\n\n    address payable public beneficiary;\n    uint256 public biddingEnd;\n    uint256 public revealEnd;\n    bool public ended;\n\n    mapping(address => Bid[]) public bids;\n\n    address public highestBidder;\n    uint256 public highestBid;\n\n    //Allowed withdrawals of previous bids\n    mapping(address => uint256) pendingReturns;\n\n    event AuctionEnded(address winner, uint256 highestBid);\n\n    // Errors that describe failures.\n\n    /// The function has been called too early.\n    /// Try again at `time`.\n    error TooEarly(uint256 time);\n\n    /// The function has been called too late.\n    /// It cannot be called after `time`\n    error TooLate(uint256 time);\n\n    /// The function auctionEnd has already been called\n    error AuctionEndAlreadyCalled();\n\n    // Function modifiers are used to validate inputs to function\n    // New function body is modifier's body where '_' is replaced by old function body\n    modifier onlyBefore(uint256 time) {\n        // if (block.timestamp >= time) revert TooLate(time);\n        require(block.timestamp < time, \"Function is called too late\");\n        _;\n    }\n\n    modifier onlyAfter(uint256 time) {\n        // if (block.timestamp <= time) revert TooEarly(time);\n        require(block.timestamp > time, \"Function is called too early\");\n        _;\n    }\n\n    constructor(\n        uint256 biddingTime,\n        uint256 revealTime,\n        address payable beneficiaryAddress\n    ) {\n        beneficiary = beneficiaryAddress;\n        biddingEnd = block.timestamp + biddingTime;\n        revealEnd = biddingEnd + revealTime;\n    }\n\n    function getBlindedBidFromBytes(\n        uint256 value,\n        bool fake,\n        bytes32 secret\n    ) public view returns (bytes32) {\n        return keccak256(abi.encodePacked(value, fake, secret));\n    }\n\n    /// Place a blinded bid\n    function bid(bytes32 blindedBid) external payable onlyBefore(biddingEnd) {\n        bids[msg.sender].push(\n            Bid({blindedBid: blindedBid, deposit: msg.value})\n        );\n    }\n\n    /// Reveal blinded bids, refund all correctly blinded invlid bids and all bids except for the highest one\n    function reveal(\n        uint256[] calldata values,\n        bool[] calldata fakes,\n        bytes32[] calldata secrets\n    ) external onlyAfter(biddingEnd) onlyBefore(revealEnd) {\n        uint256 length = bids[msg.sender].length;\n        require(\n            values.length == length,\n            \"Lenght of values of not equal to number of bids\"\n        );\n        require(\n            fakes.length == length,\n            \"Lenght of fakes of not equal to number of bids\"\n        );\n        require(\n            secrets.length == length,\n            \"Lenght of secrets of not equal to number of bids\"\n        );\n\n        uint256 refund;\n        for (uint256 i = 0; i < length; i++) {\n            Bid storage bidToCheck = bids[msg.sender][i];\n            (uint256 value, bool fake, bytes32 secret) = (\n                values[i],\n                fakes[i],\n                secrets[i]\n            );\n\n            if (\n                bidToCheck.blindedBid !=\n                keccak256(abi.encodePacked(value, fake, secret))\n            ) {\n                // Bid not actually revealed, do not refund deposit\n                continue;\n            }\n            refund += bidToCheck.deposit;\n            if (!fake && bidToCheck.deposit >= value) {\n                if (placeBid(msg.sender, value)) refund -= value;\n            }\n            // Make it impossible for sender to reclaim the same deposit\n            bidToCheck.blindedBid = bytes32(0);\n        }\n        payable(msg.sender).transfer(refund);\n    }\n\n    /// Withdraw a bid that was overbid\n    function withdraw() external {\n        uint256 amount = pendingReturns[msg.sender];\n        if (amount > 0) {\n            // set this to 0 as recipient can call the function again as part of recieving call\n            // before `transfer` returns\n            pendingReturns[msg.sender] = 0;\n            payable(msg.sender).transfer(amount);\n        }\n    }\n\n    /// End auction and send highest bid to beneficiary\n    function auctionEnd() external onlyAfter(revealEnd) {\n        if (ended) revert AuctionEndAlreadyCalled();\n        ended = true;\n        beneficiary.transfer(highestBid);\n    }\n\n    /// An internal function called during reveal function\n    function placeBid(address bidder, uint256 value)\n        internal\n        returns (bool success)\n    {\n        if (value <= highestBid) {\n            return false;\n        }\n        if (highestBidder != address(0)) {\n            // Refund previous highestBidder\n            pendingReturns[highestBidder] += highestBid;\n        }\n        highestBid = value;\n        highestBidder = bidder;\n        return true;\n    }\n}\n",
  "sourcePath": "/home/s/programming/ethereum/blind_auction/contracts/BlindAuction.sol",
  "compiler": {
    "name": "solc",
    "version": "0.8.13+commit.abaa5c0e.Emscripten.clang"
  },
  "schemaVersion": "3.4.7",
  "updatedAt": "2022-05-25T07:09:29.479Z",
  "networkType": "ethereum",
  "devdoc": {
    "kind": "dev",
    "methods": {},
    "version": 1
  },
  "userdoc": {
    "errors": {
      "AuctionEndAlreadyCalled()": [
        {
          "notice": "The function auctionEnd has already been called"
        }
      ],
      "TooEarly(uint256)": [
        {
          "notice": "The function has been called too early. Try again at `time`."
        }
      ],
      "TooLate(uint256)": [
        {
          "notice": "The function has been called too late. It cannot be called after `time`"
        }
      ]
    },
    "kind": "user",
    "methods": {
      "auctionEnd()": {
        "notice": "End auction and send highest bid to beneficiary"
      },
      "bid(bytes32)": {
        "notice": "Place a blinded bid"
      },
      "reveal(uint256[],bool[],bytes32[])": {
        "notice": "Reveal blinded bids, refund all correctly blinded invlid bids and all bids except for the highest one"
      },
      "withdraw()": {
        "notice": "Withdraw a bid that was overbid"
      }
    },
    "version": 1
  }
}